:020000020000FC
:1000000050E0A0E0B2E0C0E0D4E0E0E0F6E040E0A4
:100010004A0F4B0F4C93A395AF3F90F453950C941C
:1000200024005F3FA1F750E040E04A0F4B0F4C9394
:10003000A39553950C943C005A32B1F70C9454009C
:10004000A0E0B3950C940E0063E070E0842F7395EC
:10005000461BE8F77A95460F403039F48883C395FC
:1000600090E0080F1F1D0C9411008083E39590E031
:10007000280F3F1D0C94110063E070E0842F7395EE
:10008000461BE8F77A95460F403039F48883C395CC
:1000900090E0080F191F0C941C008083E39590E0FA
:0C00A000280F390F0C941C000C94540025
:00000001FF
