S01100004763634441324354332E7372656385
S11300000C9434000C9446000C9446000C94460066
S11300100C9446000C9446000C9446000C94460044
S11300200C9446000C9446000C9446000C94460034
S11300300C9446000C9446000C9448000C94460022
S11300400C9446000C9446000C9446000C94460014
S11300500C9446000C9446000C9446000C94460004
S11300600C9446000C94460011241FBECFEFD8E038
S1130070DEBFCDBF21E0A0E0B1E001C01D92A13000
S1130080B207E1F70E9484000C948D000C940000E8
S11300901F920F920FB60F9211242F933F938F93B9
S11300A09F9316BC2BE130E086B58F3FE9F716BC71
S11300B021503109C9F795B184E0892785B916BC67
S11300C022E130E086B58F3FE9F716BC21503109B3
S11300D0C9F795B184E0892785B916BC9F918F91A2
S11300E03F912F910F900FBE0F901F90189585B5DB
S11300F0856085BD16BCEEE6F0E080818260808379
S11301007894109200010895229A259A95B180E27C
S1110110892785B90E947700FFCFF894FFCFAE
S9030000FC
