:100000000C9434000C9446000C9446000C9446006A
:100010000C9446000C9446000C9446000C94460048
:100020000C9446000C9446000C9446000C94460038
:100030000C9446000C9446000C9446000C94460028
:100040000C9448000C9446000C9446000C94460016
:100050000C9446000C9446000C9446000C94460008
:100060000C9446000C94460011241FBECFEFD8E03C
:10007000DEBFCDBF21E0A0E0B1E001C01D92A13004
:10008000B207E1F70E947F000C9496000C940000E8
:100090001F920F920FB60F9211248F93809100013F
:1000A0008F5F809300018F910F900FBE0F901F9074
:1000B000189585B5856085BD16BCEEE6F0E08081BB
:1000C000816080837894109200010895AC01E4E08F
:1000D00011C02091000130E02417350758F086B593
:1000E00090E08617970730F085B18E2785B916BC4A
:1000F00010920001909100019111EBCF0895229A86
:10010000259A95B180E2892785B90E945900C4E0FB
:1001100031990AC085B18C2785B965EA70E08EE413
:1001200090E00E946600F4CF2A9AF2CFF894FFCFB5
:00000001FF
