S01100004763634441324354312E7372656387
S11300000C9434000C943E000C943E000C943E007E
S11300100C943E000C943E000C943E000C943E0064
S11300200C943E000C943E000C943E000C943E0054
S11300300C943E000C943E000C943E000C943E0044
S11300400C943E000C943E000C943E000C943E0034
S11300500C943E000C943E000C943E000C943E0024
S11300600C943E000C943E0011241FBECFEFD8E048
S1130070DEBFCDBF0E9440000C9462000C940000CF
S113008084E284B92D9A85E085BD94E016BC2BE109
S113009030E086B58F3FE9F716BC21503109C9F726
S11300A085B1892785B916BC22E130E086B58F3F3A
S11300B0E9F716BC21503109C9F785B1892785B9FB
S10B00C016BCE4CFF894FFCF55
S9030000FC
