S01100004763634441344254312E7372656386
S11300000C9434000C9446000C9446000C94460066
S11300100C9446000C9446000C9446000C94460044
S11300200C9446000C9446000C9446000C948C00EE
S11300300C9446000C9446000C9446000C94460024
S11300400C9446000C9446000C9446000C94460014
S11300500C9446000C9446000C9446000C94460004
S11300600C9446000C94460011241FBECFEFD8E038
S1130070DEBFCDBF21E0A0E0B1E001C01D92A330FE
S1130080B207E1F70E9448000C94B0000C94000001
S11300908FEF84B917B881E080937E00ECE7F0E03D
S11300A0108280818064808380818062808387E87D
S11300B080937A0010927B00E1E8F0E080818B600D
S11300C0808310928500109284001092890010920F
S11300D08800EFE6F0E0808182608083EAE7F0E068
S11300E0A9E7B0E04CE039E023E096E08081806449
S11300F08083808184FFFDCF8C91853FB8F78C91FC
S1130100865F8093020145B9789435B9789425B90E
S1130110789495B97894EACF1F920F920FB60F9204
S113012011242F933F938F939F938091020120E09A
S113013030E08FEC97E00197F1F700C000002F5FEB
S11301403F4F8091020190E08217930794F79F91AB
S11301508F913F912F910F900FBE0F901F90189584
S1070160F894FFCF3D
S9030000FC
