:100000000C9434000C9446000C9446000C9446006A
:100010000C9446000C9446000C9446000C94460048
:100020000C9446000C9446000C9446000C94460038
:100030000C9446000C9446000C9446000C94460028
:100040000C9448000C9446000C9446000C94460016
:100050000C9446000C9446000C9446000C94460008
:100060000C9446000C94460011241FBECFEFD8E03C
:10007000DEBFCDBF21E0A0E0B1E001C01D92A13004
:10008000B207E1F70E9479000C948E000C940000F6
:100090001F920F920FB60F9211248F93809100013F
:1000A0008F5F809300018F910F900FBE0F901F9074
:1000B000189585B5856085BD16BCEEE6F0E08081BB
:1000C000816080837894109200010895209100014E
:1000D00030E02817390760F086B590E0861797075B
:1000E00038F095B184E0892785B916BC10920001DB
:1000F0000895229A259A95B180E2892785B90E94B0
:10010000590065EA70E08AE190E00E94660063ECC5
:1001100070E081E190E00E946600F3CFF894FFCF99
:00000001FF
