S01300004763634441324354332E322E7372656323
S11300000C9434000C9446000C9446000C94460066
S11300100C9446000C9446000C9446000C94460044
S11300200C9446000C9446000C9446000C94460034
S11300300C9446000C9446000C9448000C94460022
S11300400C9446000C9446000C9446000C94460014
S11300500C9446000C9446000C9446000C94460004
S11300600C9446000C94460011241FBECFEFD8E038
S1130070DEBFCDBF21E0A0E0B1E001C01D92A13000
S1130080B207E1F70E9475000C947E000C94000006
S11300901F920F920FB60F9211248F939F9316BC49
S11300A0319B09C00DC02A98A99BFDCF16BCA99A03
S11300B0019719F406C08DE490E0A99BF4CFF6CF24
S11300C02A9A9F918F910F900FBE0F901F901895B1
S11300D085B5856085BD16BCEEE6F0E08081826062
S11300E080837894109200010895229A259A95B1FC
S11300F080E2892785B90E946800FFCFF894FFCF7A
S9030000FC
