S00F0000476363444133412E737265630F
S11300000C9434000C9449000C9449000C9449005D
S11300100C9449000C9449000C9449000C94490038
S11300200C9449000C9449000C9449000C94490028
S11300300C9449000C9449000C9449000C94490018
S11300400C9449000C9449000C9449000C94490008
S11300500C9449000C9449000C9449000C944900F8
S11300600C9449000C94490011241FBECFEFD8E032
S1130070DEBFCDBF11E0A0E0B1E0E6E4F1E002C0F4
S113008005900D92A831B107D9F70E946E000C9427
S1130090A1000C9400001092C50087E68093C40070
S11300A088E18093C10086E08093C2000895E0EC6B
S11300B0F0E0908195FFFDCF8093C6000895CF9323
S11300C0DF93EC018881882331F021960E94570048
S11300D089918111FBCFDF91CF910895CF93DF9365
S11300E0CDB7DEB72D970FB6F894DEBF0FBECDBFE8
S11300F00E944B0082E394E39A83898380E290E038
S11301009C838B8389E0EFE0F1E0DE01159601909A
S11301100D928A95E1F780E091E00E945F00CE01A4
S113012001960E945F00CE0105960E945F002FEFAA
S113013083ED90E3215080409040E1F700C000003F
S1090140EACFF894FFCFA2
S113014648656C6C6F20776F726C642121200033D4
S10B01562E313431353820004C
S9030000FC
