:100000000C9434000C943E000C943E000C943E0082
:100010000C943E000C943E000C943E000C943E0068
:100020000C943E000C943E000C943E000C943E0058
:100030000C943E000C943E000C943E000C943E0048
:100040000C943E000C943E000C943E000C943E0038
:100050000C943E000C943E000C943E000C943E0028
:100060000C943E000C943E0011241FBECFEFD8E04C
:10007000DEBFCDBF0E9440000C94AB000C9400008A
:1000800017B881E080937E00ECE7F0E01082808179
:100090008064808380818062808387E880937A0097
:1000A00010927B00E0E8F0E08081826A8083E1E8E2
:1000B000F0E080818B61808387E893E190938700F3
:1000C00080938600219AEAE7F0E009E710E026E055
:1000D00030E0C8E8D0E0808180648083808184FF44
:1000E000FDCFD8018C9190E0AC01440F551F440F17
:1000F000551F840F951FB9010E948300655B7F4FD8
:1001000079836883E8CF97FB072E16F4009407D015
:1001100077FD09D00E94970007FC05D03EF490952A
:1001200081959F4F0895709561957F4F0895AA1B03
:10013000BB1B51E107C0AA1FBB1FA617B70710F0D2
:10014000A61BB70B881F991F5A95A9F78095909504
:0A015000BC01CD010895F894FFCF23
:00000001FF
