S00F0000476363444134412E737265630E
S11300000C9434000C9446000C9446000C94460066
S11300100C9446000C9446000C9446000C94460044
S11300200C9446000C9446000C9446000C94460034
S11300300C9446000C9446000C9446000C94460024
S11300400C94B0000C9446000C9446000C944600AA
S11300500C9446000C9446000C9446000C94460004
S11300600C9446000C94460011241FBECFEFD8E038
S1130070DEBFCDBF21E0A0E0B1E001C01D92A430FD
S1130080B207E1F70E9448000C94D2000C940000DF
S113009086E084B917B88AB18FEF8AB9E0E8F0E056
S11300A08081826A8083E1E8F0E0808189618083D5
S11300B08FEF9FEF90938700809386008AE787BD38
S11300C085E085BD83E884BDEEE6F0E08081816053
S11300D0808317B891E090937E00ECE7F0E0108203
S11300E080818064808380818062808387E88093BC
S11300F07A0010927B009DBB83E080936900789422
S1130100EAE7F0E0A9E7B0E021E031E0C8E8D0E0B8
S1130110808180648083808184FFFDCF8C9190E016
S11301209093010180930001809102019091030159
S1130130892B69F04091000150910101429FC00157
S1130140439F900D529F900D112499838883809131
S1130150020190910301892BD9F619821882D8CF14
S11301601F920F920FB60F9211242F933F938F93E8
S11301709F93489B0EC0209102013091030181E0BE
S113018090E0232B11F080E090E0909303018093A2
S113019002019F918F913F912F910F900FBE0F906D
S10B01A01F901895F894FFCF9D
S9030000FC
