S01A00004763634170706C69636174696F6E444131422E7372656391
S11300000C9434000C943E000C943E000C943E007E
S11300100C943E000C943E000C943E000C943E0064
S11300200C943E000C943E000C943E000C943E0054
S11300300C943E000C943E000C943E000C943E0044
S11300400C943E000C943E000C943E000C943E0034
S11300500C943E000C943E000C943E000C943E0024
S11300600C943E000C943E0011241FBECFEFD8E048
S1130070DEBFCDBF0E9440000C945E000C940000D3
S1130080CF93DF9380E0E0E0F2E0A0E0B6E0C0E0F0
S1130090D4E09F01332721933193833018F42993BB
S11300A0399302C02D933D938E5FE63C92E0F907AD
S11300B081F780E090E0DF91CF910895F894FFCF2D
S9030000FC
